:0400000080312E28F5
:100008007E1480310B1F09280A282C282100111E74
:100018000E280F281B282000111E132814281B281F
:1000280021006C088A006B080A0080312C28210006
:10003800911E1F2820282C282000911E24282528BE
:100048002C2821006A088A0069080A0080312C28B7
:100058007E1009008031302870308400003085001F
:10006800083084315A2480312030840000308500E3
:100078000C3084315A2480317E102000803144288D
:100088008431322480318B170B1706302000AC00E6
:100098002C082100D90009302000AC002C082100D0
:1000A800DC0009302000AC002C082100DD00013004
:1000B8002000AC002C082100CE000B302000AC0042
:1000C8002C082100DE0001302000AC002C082100A3
:1000D800CF00E201D201DF01E001DA01E101DB0139
:1000E800D301D401D501D601D701D801C201C3017A
:1000F800872821004208AF3E860087018101013030
:10010800C2070030C33D4308803A2000AC0080306D
:100118002C02031D922821005D084202031C952829
:1001280096287D282100C401C501A428210044087F
:10013800B83E8600870181010130C4070030C53D03
:100148004508803A2000AC0080302C02031DAF28FF
:1001580021005E084402031CB228B3289A28210013
:10016800C601C701C12821004608A63E86008701AE
:1001780081010130C6070030C73D4708803A20009A
:10018800AC0080302C02031DCC2821005C084602FC
:10019800031CCF28D028B72820002B080319D528FE
:1001A800D628D02824302906031DDB28DC28E0289F
:1001B8000130AC002C08AA002A080319E428E52815
:1001C80019292100590862020318EB28EC2819297B
:1001D8006208533E840084300318013E85000008FD
:1001E80020002906031DF928FA2809292908AC0046
:1001F80021006208A03E8600870120002C088100AB
:100208000130AC002C082100E207210062085906E1
:10021800031D0F291029192901302000AC002C08D2
:100228002100D300E2012000AA012100530803198C
:100238001E291F291E2A2C3020002906031D2529C6
:1002480026291E2A0130AC002C082100D2071E2ABC
:100258000130AC002C082100D4003C2A0130AC004D
:100268002C082100D5003C2A0130AC002C082100C4
:10027800D7003C2A0130AC002C082100D6003C2ACB
:100288000130AC002C082100D8003C2A2100D30101
:10029800D201C801C901622921004808A63E86008A
:1002A800870101082000AC002C08F90083318E2357
:1002B800803101302100C8070030C93D4908803A23
:1002C8002000AC0080302C02031D6D2921005C0841
:1002D8004802031C7029712950290A302000AC00FB
:1002E8002C08F90083318E2380310D302000AC00BA
:1002F8002C08F90083318E2380312100CA01CB01FB
:10030800972921004A08AF3E86008701010820008E
:10031800AC002C08F90083318E2380310130210094
:10032800CA070030CB3D4B08803A2000AC00803033
:100338002C02031DA22921005D084A02031CA529DD
:10034800A62985290A302000AC002C08F900833141
:100358008E2380310D302000AC002C08F900833149
:100368008E238031210050082000AC002C08F900B1
:1003780083318E2380310A302000AC002C08F9002C
:1003880083318E2380310D302000AC002C08F90019
:1003980083318E2380312100CC01CD01E529210054
:1003A8004C08B83E8600870101082000AC002C08E4
:1003B800F90083318E23803101302100CC070030D1
:1003C800CD3D4D08803A2000AC0080302C02031D42
:1003D800F02921005E084C02031CF329F429D329D3
:1003E8000A302000AC002C08F90083318E238031BC
:1003F8000D302000AC002C08F90083318E238031A9
:10040800210051082000AC002C08F90083318E230C
:1004180080310A302000AC002C08F90083318E238B
:1004280080310D302000AC002C08F90083318E2378
:1004380080313C2A210052082000AC00AD012D0873
:10044800003A0319282A3C2A2C08013A03192C29B6
:10045800033A03193229013A03193829073A0319CB
:100468003E29013A03194429033A03194A293C2A27
:10047800210054080319412A422A692A2C302000F5
:1004880029060319482A492A612A21005C085F02C3
:1004980003184F2A502A692A20002908AC00210095
:1004A8005F08A63E8600870120002C0881000130E5
:1004B800AC002C082100DF07692A21005F08031916
:1004C800662A672A692AD401DF01550803196D2AAB
:1004D8006E2A952A2C30200029060319742A752AB9
:1004E8008D2A21005D08600203187B2A7C2A952A40
:1004F80020002908AC0021006008AF3E8600870173
:1005080020002C0881000130AC002C082100E007F5
:10051800952A210060080319922A932A952AD50161
:10052800E00157080319992A9A2ABD2A2C3020007D
:1005380029060319A02AA12AB52A21004E085A0221
:100548000318A72AA82ABD2A20002908AC002C08CD
:100558002100D00001302000AC002C082100DA076F
:10056800BD2A21005A080319BA2ABB2ABD2AD70175
:10057800DA0156080319C12AC22AE92A2C302000B8
:1005880029060319C82AC92AE12A21005E0861023E
:100598000318CF2AD02AE92A20002908AC00210014
:1005A8006108B83E8600870120002C0881000130D0
:1005B800AC002C082100E107E92A21006108031991
:1005C800E62AE72AE92AD601E10158080319ED2AA3
:1005D800EE2A112B2C30200029060319F42AF52ABB
:1005E800092B21004F085B020318FB2AFC2A112B58
:1005F80020002908AC002C082100D100013020007F
:10060800AC002C082100DB07112B21005B08031923
:100618000E2B0F2B112BD801DB012000AB01D028AA
:1006280080312E28210091125530F9000330FA004C
:1006380084316624833121001112DB30F900033044
:10064800FA00843160248331083023009F00903001
:100658009D0024309E0019309B009C018A30F900CF
:100668000430FA008431722483318230F900043076
:10067800FA0084316C2483318630F9000430FA00A2
:100688008431782483312000A801F601F50108306F
:10069800FB007B08AE00F401F301F0012100911684
:1006A80008007408713E86008701810123001D1D22
:1006B8005E2B5F2B6A2B7408713E860087018114BC
:1006C800210068088A0067080A00833123009D1CFE
:1006D8006E2B6F2B7A2B7408713E860087010115EB
:1006E800210066088A0065080A0083317408713E93
:1006F8008600870101080319822B832B8A2B21008E
:1007080064088A0063080A0083318D2B8331FD2336
:100718008331080020002E080319932B942B8E2B6D
:100728002100111A982B992B9D2B790823009A00E8
:10073800B42B11127908FA007608203E860087014A
:100748007A0881000130FA007A08F6070830760244
:10075800031CAF2BB02BB12BF60101302000AE02E9
:1007680021001116080022008C018E01373021006B
:100778008C002F308E000F3023008E0037308C0015
:1007880024008C018E0125008C018E013730260053
:100798008C003F308E003F3027008C003F308E00A9
:1007A80015303C00A40014303D00A40008000830B7
:1007B80020002E020318E12BE22BFA2B7508203EAD
:1007C80086008701010823009A000130F8007808A4
:1007D800F50708307502031CF22BF32BF42BF501F7
:1007E8000130F80078082000AE07FC2B2100111218
:1007F80008007208F80078082000A9000130F80005
:100808007808AB0023001908F8007408723E8600C7
:100818008701780881000130F8007808F407740827
:100828000319172C182C192CF4010130F80078083A
:10083800F0070800003400348E34033400340034E8
:1008480000340034603404345534033466340434DA
:1008580000340034DB3403341634033484314B243D
:1008680084318331B7238431843142248431843103
:100878007E248431833116238431080062303200AB
:1008880099009B019D0103309F009E0108003200E2
:100898009101920193019401950196010800243475
:1008A80047344E34473447344134003464008001BF
:1008B8000131890B5B2C00347A082100EC0079089F
:1008C800EB0008007A082100EA007908E90008002E
:1008D8007A082100E6007908E50008007A08210076
:1008E800E8007908E70008007A082100E4007908A0
:1008F800E3000800163021009700080023001D12AD
:0E0908001D1608008331FD238431080008000D
:020000040001F9
:08000E00EC3FF33FFF3FFF3F11
:00000001FF
