:0400000080312D28F6
:100008007E1480310B1F09280A282B282100111E75
:100018000E280F281A282000111E132814281A2821
:100028002D088A002C080A0080312B282100911EF7
:100038001E281F282B282000911E232824282B281F
:10004800210068088A0067080A0080312B287E1082
:10005800090080312F287030840000308500083076
:100068008331E123803120308400003085000C305A
:100078008331E12380317E10200080314328833191
:10008800B92380318B170B1706302000AF002F08DB
:100098002100D70009302000AF002F082100D80028
:1000A80009302000AF002F082100DB0001302000BC
:1000B800AF002F082100CC000B302000AF002F0824
:1000C8002100DC0001302000AF002F082100CD0006
:1000D800E001D001DD01DE01D901DF01DA01D10142
:1000E800D201D301D401D501D601C201C3018628AA
:1000F80021004208AF3E8600870181010130C20716
:100108000030C33D4308803A2000AF0080302F0202
:10011800031D912821005B084202031C942895289E
:100128007C282100C401C501A32821004408B83E49
:100138008600870181010130C4070030C53D4508AC
:10014800803A2000AF0080302F02031DAE28210026
:100158005C084402031CB128B22899282100C60172
:10016800C701C02821004608A63E860087018101F4
:100178000130C6070030C73D4708803A2000AF006D
:1001880080302F02031DCB28210058084602031C8B
:10019800CE28CF28B62820002B080319D428D52824
:1001A800CF2824302906031DDA28DB28DF28013070
:1001B800AF002F08AA002A080319E328E428182901
:1001C8002100570860020318EA28EB28182960085C
:1001D800DA3E840083300318013E850000082000C1
:1001E8002906031DF828F92808292908AF00210045
:1001F8006008A03E8600870120002F08810001309A
:10020800AF002F082100E007210060085706031DF2
:100218000E290F29182901302000AF002F082100CE
:10022800D100E0012000AA012100510803191D296D
:100238001E29B8292C3020002906031D2429252928
:10024800B8290130AF002F082100D007B8290130A4
:10025800AF002F082100D200D6290130AF002F08A7
:100268002100D300D6290130AF002F082100D50086
:10027800D6290130AF002F082100D400D62901303B
:10028800AF002F082100D600D6292100D101D001C6
:10029800C801C9015D2921004808AF3E86008701D1
:1002A800010883312823803101302100C80700303C
:1002B800C93D4908803A2000AF0080302F02031D55
:1002C800682921005B084802031C6B296C294F2907
:1002D8000A308331282380310D308331282380313F
:1002E80021004E088331282380310A3083312823A6
:1002F80080310D308331282380312100CA01CB01A0
:10030800932921004A08B83E8600870101088331F5
:100318002823803101302100CA070030CB3D4B082B
:10032800803A2000AF0080302F02031D9E29210053
:100338005C084A02031CA129A22985290A308331B5
:10034800282380310D3083312823803121004F0844
:100358008331282380310A308331282380310D30BE
:10036800833128238031D629210050082000AF008E
:10037800B0013008003A0319C229D6292F08013ADA
:1003880003192B29033A03193129013A031937298B
:10039800073A03193D29013A03194329033A031976
:1003A8004929D629210052080319DB29DC29032A07
:1003B8002C30200029060319E229E329FB29210012
:1003C80058085D020318E929EA29032A20002908A8
:1003D800AF0021005D08A63E8600870120002F0897
:1003E80081000130AF002F082100DD07032A21001A
:1003F8005D080319002A012A032AD201DD015308E6
:100408000319072A082A2F2A2C3020002906031945
:100418000E2A0F2A272A21005B085E020318152AD4
:10042800162A2F2A20002908AF0021005E08AF3EB7
:100438008600870120002F0881000130AF002F08B7
:100448002100DE072F2A21005E0803192C2A2D2AF5
:100458002F2AD301DE0155080319332A342A572AD3
:100468002C302000290603193A2A3B2A4F2A21005A
:100478004C0859020318412A422A572A2000290801
:10048800AF002F082100CE0001302000AF002F0858
:100498002100D907572A210059080319542A552A37
:1004A800572AD501D901540803195B2A5C2A832AE3
:1004B8002C30200029060319622A632A7B2A21008E
:1004C8005C085F020318692A6A2A832A200029081F
:1004D800AF0021005F08B83E8600870120002F0882
:1004E80081000130AF002F082100DF07832A210097
:1004F8005F080319802A812A832AD401DF0156085C
:100508000319872A882AAB2A2C30200029060319C8
:100518008E2A8F2AA32A21004D085A020318952AE9
:10052800962AAB2A20002908AF002F082100CF0007
:1005380001302000AF002F082100DA07AB2A210084
:100548005A080319A82AA92AAB2AD601DA012000D9
:10055800AB01CF2880312D2821009112EF30F9000E
:100568000230FA008331ED238231210011127630F6
:10057800F9000330FA008331E72382310830230081
:100588009F0090309D0024309E0019309B009C01F4
:100598001130F9000430FA008331F923823109302F
:1005A800F9000430FA008331F32382310D30F90069
:1005B8000430FA008331FF2382312000A801F601BC
:1005C800F5010830FB007B08AE00F401F301F001EF
:1005D8002100911608007408713E86008701810188
:1005E80023001D1DF82AF92A042B7408713E860081
:1005F80087018114210066088A0065080A00833192
:1006080023009D1C082B092B142B7408713E8600AF
:1006180087010115210064088A0063080A008331F4
:100628007408713E86008701010803191C2B1D2BD5
:10063800242B210062088A0061080A008331272BD5
:100648008331982382310800FA0020002E0803190C
:100658002E2B2F2B292B2100111A332B342B382B1F
:100668007A0823009A004F2B11127A08F9007608AD
:10067800203E86008701790881000130F900790859
:10068800F60708307602031C4A2B4B2B4C2BF6013D
:1006980001302000AE0221001116080022008C0152
:1006A8008E01043021008C0027308E000F3023008B
:1006B8008E0004308C0024008C018E0125008C01F2
:1006C8008E01373026008C003F308E003F302700E7
:1006D8008C003F308E0015303C00A40014303D00E3
:1006E800A4000800083020002E0203187C2B7D2B64
:1006F800952B7508203E86008701010823009A0083
:100708000130F8007808F50708307502031C8D2BB6
:100718008E2B8F2BF5010130F80078082000AE07EA
:10072800972B2100111208007208F80078082000A1
:10073800A9000130F8007808AB0023001908F80078
:100748007408723E86008701780881000130F8003D
:100758007808F40774080319B22BB32BB42BF401EF
:100768000130F8007808F00708008331D22383317C
:100778008331522383318331C92383318431052462
:1007880083318231B022833108006230320099000F
:100798009B019D0103309F009E01080032009101DA
:1007A800920193019401950196010800243447347D
:1007B80050344734473441340034640080010131F7
:1007C800890BE22B00347A082000AD007908AC00D0
:1007D80008007A082100E8007908E70008007A088C
:1007E8002100E4007908E30008007A082100E60007
:1007F8007908E50008007A082100E2007908E1009C
:100808000800163021009700080023001D121D164D
:0C08180008008331982384310800080098
:020000040001F9
:08000E00EC3FF33FFF3FFF3F11
:00000001FF
